S01700004763634170706C69636174696F6E312E737265635B
S113000071C0000081C000007FC000007DC00000FE
S11300107BC0000079C0000077C0000075C00000FC
S113002073C0000071C000006FC000006DC000000C
S11300306BC0000069C0000067C0000065C000001C
S113004063C0000061C000005FC000005DC000002C
S11300505BC0000059C0000057C0000055C000003C
S113006053C000008FC000004FC000004DC000000E
S11300704BC0000049C0000047C0000045C000005C
S113008043C0000041C000003FC000003DC000006C
S11300903BC0000039C0000037C0000035C000007C
S11300A033C0000031C000002FC000002DC000008C
S11300B02BC0000029C0000027C0000025C000009C
S11300C023C0000021C000001FC000001DC00000AC
S11300D01BC0000019C0000017C0000015C00000BC
S11300E013C0000011241FBECFEFD1E2DEBFCDBF8D
S11300F000E00CBF22E0A0E0B2E001C01D92A230FB
S1130100B207E1F71BD051C07BCF9093C500809319
S1130110C40088E98093C1008EE08093C2000895F2
S1130120009759F02FEF31EE44E021503040404029
S1130130E1F700C000000197A9F70895789487E6D5
S113014090E0E3DF80E884B9C0E005E011E0DAE0A4
S113015080910102882379F080910002823331F08A
S1130160833331F0813329F4CD2F03C0C02F01C074
S1130170C12F1092010285B1805885B98C2F90E06F
S1130180CFDFE6CF1F920F920FB60F9211248F93F9
S11301908091C6008093000281E0809301028F91D8
S11101A00F900FBE0F901F901895F894FFCF8C
S9030000FC
