S01700004763634170706C69636174696F6E312E737265635B
S113000071C0000081C000007FC000007DC00000FE
S11300107BC0000079C0000077C0000075C00000FC
S113002073C0000071C000006FC000006DC000000C
S11300306BC0000069C0000067C0000065C000001C
S113004063C000007FC000005FC000005DC000000E
S11300505BC0000059C0000057C0000055C000003C
S113006053C00000A6C000004FC000004DC00000F7
S11300704BC0000049C0000047C0000045C000005C
S113008043C0000041C000003FC000003DC000006C
S11300903BC0000039C0000037C0000035C000007C
S11300A033C0000031C000002FC000002DC000008C
S11300B02BC0000029C0000027C0000025C000009C
S11300C023C0000021C000001FC000001DC00000AC
S11300D01BC0000019C0000017C0000015C00000BC
S11300E013C0000011241FBECFEFD1E2DEBFCDBF8D
S11300F000E00CBF22E0A0E0B2E001C01D92A230FB
S1130100B207E1F73CD068C07BCFE0E8F0E0808143
S113011082608083E1E8F0E080818261808380E214
S11301209EE4909387008093860084E498E49093FF
S1130130890080938800EFE6F0E08081826080830C
S1130140789408951F920F920FB60F9211248F93F3
S113015085B1805885B98F910F900FBE0F901F9075
S11301601895009759F02FEF31EE44E021503040BC
S11301704040E1F700C000000197A9F70895789482
S1130180C4DF80E884B981B9C8E8D0E00F2EF1EB70
S1130190EF2EF9E4FF2EF02D05E51AE4F982E8824A
S11301A08AE090E0DEDF198308838AE090E0D9DFFB
S11301B0F5CF1F920F920FB60F9211248F93809157
S11301C0C6008093000281E0809301028F910F901A
S10F01D00FBE0F901F901895F894FFCFFD
S9030000FC
