:1000000071C000008EC000008CC000008AC00000DB
:1000100088C0000086C0000084C0000082C00000CC
:1000200080C000007EC000007CC000007AC00000DC
:10003000D3C1000076C0000074C0000072C0000090
:1000400070C0000059C100006CC000006AC0000010
:1000500068C0000066C0000064C0000062C000000C
:1000600060C000008FC100005CC000005AC00000EA
:1000700058C0000056C0000054C0000052C000002C
:1000800050C000004EC000004CC000004AC000003C
:1000900048C0000046C0000044C0000042C000004C
:1000A00040C000003EC000003CC000003AC000005C
:1000B00038C0000036C0000034C0000032C000006C
:1000C00030C000002EC000002CC000002AC000007C
:1000D00028C0000026C0000024C0000022C000008C
:1000E00020C0000011241FBECFEFD1E2DEBFCDBF84
:1000F00000E00CBF12E0A0E0B2E0E4E8F4E000E0D1
:100100000BBF02C007900D92A833B107D9F722E0C8
:10011000A8E3B2E001C01D92A434B207E1F711D107
:10012000AFC16ECF40EB54E0849F9001859F300DAE
:10013000949F300D1124A3E8BDE293D19C01369524
:100140002795329522952F7023273F7023278CE91E
:100150009AE4821B930B9093890080938800089502
:10016000CF93DF936623A1F0DC016150262F30E0AE
:100170002F5F3F4F280F391FE0ECF0E0C6ECD0E0D6
:10018000908195FFFDCF9D919883A217B307C1F78A
:10019000DF91CF910895CF92DF92FF920F931F933B
:1001A000CF93DF93CDB7DEB76A970FB6F894DEBF73
:1001B0000FBECDBF8C01F62E662329F1862FE0E01D
:1001C000F0E0C62ED12C682F70E09601261B370B6D
:1001D000200F311FD9019C9190536150710916165F
:1001E000170664F420E0990F392F330F330F930F64
:1001F0002F5F422F50E046175707ACF3E90FF11D70
:10020000815009F702C0E0E0F0E0CF018BDF8FE022
:10021000E0E0F2E0DE01119601900D928A95E1F79F
:100220006FE0CE0101969CDF6F2DC80199DF8BE056
:10023000EFE0F2E0DE01509601900D928A95E1F731
:100240006BE0CE0140968CDF6A960FB6F894DEBF65
:100250000FBECDBFDF91CF911F910F91FF90DF9027
:10026000CF9008958A3051F46091420288E392E081
:1002700092DF1092430210924202089520914202AE
:10028000309143022A3031055CF4A9014F5F5F4F82
:100290005093430240934202F901E85CFD4F808392
:1002A00080914202909143020A9741F46AE088E308
:1002B00092E071DF10924302109242020895E0E84A
:1002C000F0E0808182608083E1E8F0E080818261FB
:1002D000808380E29EE4909387008093860084E48C
:1002E00098E49093890080938800EFE6F0E08081A5
:1002F00082608083789408951F920F920FB60F92B8
:1003000011248F9382B1805882B98F910F900FBEC4
:100310000F901F9018959093C5008093C40088E9B2
:100320008093C1008EE08093C2000895F894A89550
:10033000E0E6F0E080818861808389E680837894BC
:100340000895CF93DF93CDB7DEB729970FB6F89412
:10035000DEBF0FBECDBF789487E690E0DCDF89E09A
:10036000EAE1F2E0DE01119601900D928A95E1F743
:1003700069E0CE010196F4DED9DFA1DF80E884B91F
:1003800081B9FFCF1F920F920FB60F9211240BB6B7
:100390000F922F933F934F935F936F937F938F931E
:1003A0009F93AF93BF93EF93FF93A8958091C6005F
:1003B00059DFFF91EF91BF91AF919F918F917F9105
:1003C0006F915F914F913F912F910F900BBE0F90C6
:1003D0000FBE0F901F9018951F920F920FB60F929D
:1003E00011240BB60F922F933F934F935F936F930C
:1003F0007F938F939F93AF93BF93EF93FF93CF938D
:10040000DF93CDB7DEB76597DEBFCDBF8AE590E05D
:1004100089DE85E1E3E2F2E0DE01119601900D92C2
:100420008A95E1F764E1CE0101969ADE65960FB6F2
:10043000F894DEBF0FBECDBFDF91CF91FF91EF915A
:10044000BF91AF919F918F917F916F915F914F91EC
:100450003F912F910F900BBE0F900FBE0F901F90EA
:100460001895A29FB001B39FC001A39F700D811D7D
:100470001124911DB29F700D811D1124911D0895AD
:04048000F894FFCF1E
:100484005475726E656420736572766F3A2000202D
:10049400646567726565732E0A007265626F6F74B6
:1004A400210A00536572766F20746F20736176653C
:0804B4002073746174650A00F5
:00000001FF
